:020000040800F2
:1000000058080020F9010008A51600084F1500083F
:10001000A1160008191400083B1D0008000000008C
:100020000000000000000000000000002D18000883
:100030001D140008000000000F0200081919000834
:10004000130200081302000813020008130200083C
:10005000130200081302000813020008130200082C
:10006000130200081302000813020008130200081C
:10007000130200081302000813020008130200080C
:1000800013020008130200081302000813020008FC
:1000900013020008130200081302000813020008EC
:1000A00013020008130200081302000813020008DC
:1000B00013020008130200081302000813020008CC
:1000C00013020008130200081302000813020008BC
:1000D00013020008AD1A0008351B000813020008BF
:1000E000130200081302000813020008130200089C
:1000F000130200081302000813020008130200088C
:10010000130200081302000813020008130200087B
:10011000130200081302000813020008130200086B
:10012000130200081302000813020008130200085B
:1001300000F002F800F050F80AA090E8000C8244A9
:100140008344AAF10107DA4501D100F045F8AFF286
:10015000090EBAE80F0013F0010F18BFFB1A43F0A5
:1001600001031847F82F000018300000103A24BF90
:1001700078C878C1FAD8520724BF30C830C144BF0C
:1001800004680C607047000000230024002500264E
:10019000103A28BF78C1FBD8520728BF30C148BFEA
:1001A0000B607047662902F08C87642900F07C8020
:1001B000632900F0BD83732900F0C28300207047DB
:1001C0001FB500F0D3FB04000020002102F02CF842
:1001D000E0601FBD10B510BD00F0E8FC1146FFF750
:1001E000EFFF01F061FF00F006FD03B4FFF7F2FF3F
:1001F00003BC01F09CFE0000094880470948004705
:10020000FEE7FEE7FEE7FEE7FEE7FEE7FEE7FEE7C6
:10021000FEE7FEE704480549054A064B7047000023
:100220001D1900083101000858020020580800205C
:100230005804002058040020704700000FB40449FF
:1002400010B503AA029800F07FFB10BC5DF814FB08
:100250002400002070B50C460546012A05D02878F8
:10026000800600D5EA69002302E0012305E05B1C5B
:10027000934202D2E05C0028F9D1A869E618C01ABE
:10028000A861286A184428622846AFF3008004E079
:10029000D5E9012114F8010B9047B442F8D3284660
:1002A000AFF3008070BD00002DE9F0410646002448
:1002B00010687529314616A510D0AFF300800028CC
:1002C00002DA404213A507E031688A0701D512A57A
:1002D00002E0490704D511A5012401E0AFF3008035
:1002E00000210A2206F1240709E0B0FBF2FCB0FB72
:1002F000F2F302FB1C00303078541846491C0028E9
:10030000F3D123462A463046BDE8F04100F09EB8BE
:10031000000000002D0000002B0000002000000065
:100320002DE9F0474FF0000A89460446C0F820A0A6
:100330002046E1688847002876D0252806D0D4E9F1
:1003400001219047206A401C2062F1E7E1682046C5
:1003500000258847C4F81CA006460027C4F818A04A
:100360002A2E09D0304601F0DBFD38B304EB8708B4
:10037000303EC8F8186019E059F8041B204604EB19
:1003800087029161E1688847012F064618D1E0692C
:10039000002820DA25F020051DE0D8F8180000EB31
:1003A000800006EB40003038C8F818002046E168AD
:1003B0008847064601F0B4FD0028EED1012F0AD08F
:1003C0002E2E08D12046E16888477F1C0646022F62
:1003D00045F02005C4DBA069002803DA404245F05F
:1003E0000105A061E80701D025F01005B6B1A6F11E
:1003F0004100192802D8203645F400654A463146A6
:10040000204625604D46FFF7CDFE58B1012806D0A5
:10041000ED1D25F0070000F1080989E704E005F16A
:10042000040985E730468AE7206ABDE8F08770470F
:1004300070477047704710B500F09CFA006810BD17
:1004400010B5044600F096FA046010BD2DE9F0479F
:100450000D4699469246044600F124080168880634
:1004600004D5E06921F01001216000E00120A842DC
:1004700001DD471B00E00027A1697A1902EB0900A2
:10048000081AA0612078C00602D42046AFF300808D
:10049000002608E0D4E901211AF806009047206AF6
:1004A000401C761C20624E45F4DB2078C0060AD53D
:1004B0002046AFF3008006E0D4E9012130209047C8
:1004C000206A401C2062381EA7F10107F4DC07E017
:1004D000D4E9012118F805009047206A401C2062E9
:1004E000281EA5F10105F3DC2046AFF3008020783B
:1004F000000602D50220BDE8F0870120FBE7704727
:100500002DE9FF4F0C461E464FF0FF378BB0D2E966
:100510000001DDF860800A908A46C1F30A5505B9EA
:100520003D46002108464FF00000BAF1000F00F4EC
:10053000400005DA00EB80004FF4400101EA500072
:100540004FEA9059B9F1010F00DDB9460A9850EA17
:100550004A000ED044F61050A5F2FF3545432F1443
:10056000B8F1000F1ED07542291E1EDDC9F1000230
:100570001CE0B8F1010F4FF0000001D0302103E082
:10058000F24305E02154401CB042FBDB3046002220
:10059000002121540B99C1F80880C1E900200FB057
:1005A000BDE8F08FBD1B6D1CDEE74A4600DA6942EC
:1005B00006A800F081FA06AB93E8070003AB83E8D6
:1005C000070050460A9900F05FFB8DE80700A0F590
:1005D00000501F3800900398002D0ADD42F21F01E1
:1005E0004A460844002303A90390684600F0C8FD6A
:1005F00009E0A0F500504A461F38002303A90390E4
:10060000684600F0D2FD8DE807000004000C03D01E
:100610004FF0FF30410800E01046B8F1000F03D062
:100620000022009215461EE0751E05D400F0A6F9C2
:10063000303262556D1EF9D5B3460122084302D00F
:1006400000227F1C04E02078302801D100227F1E88
:10065000002A099784D01DE0112D07DA00F08EF9E9
:10066000303262556D1C50EA0102F5D1084302D0C8
:100670000098C8B10EE00021681E05E0235C625CB2
:1006800063542254401E491C8142F7DBAB46A81B31
:10069000401E0990002004F80B000B98099AC0F83E
:1006A0000880C0E9002B7AE711264FF0000857E7D1
:1006B0002DE9F04F88460446D21D22F0070191B083
:1006C000D1E90001CDE90A0101F016FC02460B98C0
:1006D000C00F01D02D2007E02068810701D52B2015
:1006E00002E0202101EAC000032A099001D0072A74
:1006F00005DB03464146204600F09EF90BE12078D9
:10070000800601D5E06900E00620B8F1650F81465A
:1007100006D0B8F1660F18D0B8F1670F70D131E08C
:100720000020B9F1110F009001DB112301E009F164
:1007300001030AAA01A90CA8FFF7E2FEDDE90C708B
:10074000002609F10105834647E001204B46009051
:100750004FF000470AAA01A90CA8FFF7D1FEDDE976
:100760000DB00C995D46002610B909F101000D1875
:10077000B9EB050003D4C0F1FF3609F10105A5EB83
:1007800009002BE0B9F1010F01DA4FF00109002057
:10079000B9F1110F0090484601DD112300E0034636
:1007A0000AAA01A90CA8FFF7ABFEDDE90C704D46C3
:1007B00000268346207800070AD4AB4500DA5D4660
:1007C00001A8012D04DD411911F8011C302907D0C1
:1007D0004F4502DA17F1040F04DA012082460FE0D8
:1007E0006D1EEEE7002F02DCED1B3E4403E0781C9B
:1007F000A84200DD7D1CB81B00F1010A4FF0004744
:100800002078000703D4AA4501DB4FF0FF3A00210E
:10081000B7F1004F0DF143088DF8431024D00220AA
:100820002B23002F01DA7F422D230A21021EA0F183
:10083000010000DC5FB197FBF1FC97FBF1F201FBDB
:100840001C7C17460CF1300C08F801CDEEE7A8F13E
:10085000010003702188090501D5452100E06521CB
:10086000A0F1010800F8011C09980FA9A1EB0807E5
:10087000FF1D00B10120411901EBEA70A169384464
:10088000081A401EA0612078C00602D42046AFF3AB
:100890000080099828B1D4E901219047206A401CC2
:1008A00020622078C00622D52046AFF300801EE0EB
:1008B000002E04DBB34502DD01A8805D00E030209E
:1008C000D4E901219047206A401C2062761CAAF1DD
:1008D00001005FEA000A0AD100F048F8C068016828
:1008E000405CD4E901219047206A401C2062281E08
:1008F000A5F10105DCDC07E0D4E9012118F8010BC2
:100900009047206A401C2062381EA7F10107F3DCE3
:100910002046AFF30080032011B041E610B54369D3
:1009200013B1AFF3008001E0FFF794FC012010BD8C
:10093000127800F124010A7000224A700122EDE7CA
:1009400011684FF0FF32E9E7074B70B50D467B4465
:1009500000F05FF80446284600F020F910B14FF08F
:10096000FF3070BD204670BD3B1700000048704747
:100970001802002000487047F801002030B5B0F19F
:100980000A024FEA900E71F100034EEA817EB0EB4D
:100990000E0061EB91014FEA101E4EEA017E10EB52
:1009A0000E0041EB11114FEA102E4EEA016E10EBD2
:1009B0000E0041EB11214FEA104E4EEA014E10EBB2
:1009C0000E0041EB1141401841F100014FEAD00007
:1009D00040EA41704FEAD10110EB80054FEA8104F3
:1009E00044EA907444EB01046D1944EB0404521B77
:1009F000A3414FF0000348BF0A3200D530BD401C70
:100A000041F1000130BD000001694A1C0261087813
:100A1000704700B58FB0CDE901310021059105493E
:100A20007944CDE9031011466846FFF779FC0FB011
:100A300000BD0000E5FFFFFF2DE9F0411F46044621
:100A400003260168072A01F4006004DB08B116A53B
:100A500005E016A503E008B115A500E015A521F0F5
:100A600010002060A069C01EA0610FB1401EA061EF
:100A70002046AFF300804FB1D4E9012138469047BA
:100A8000206A401C2062C01C206206E0206AFAE74F
:100A9000D4E9012115F8010B9047761EF8D22046C3
:100AA000AFF30080BDE8F0814E414E006E616E00F4
:100AB000494E4600696E66002DE9F04781461646AC
:100AC0008AB0354878440DC88DE80D003248784426
:100AD000801C03AC0DC884E80D0041F69B3008442F
:100AE000372190FBF1F290FBF1F5A5F1800501FBB8
:100AF00012041B3C02D56442012000E00020DFF814
:100B000098A080460027FA44AAF1BE0A0EE0E0074A
:100B10000AD03246684607EB470101230AEB810100
:100B200000F043FB8DE8070064107F1C002CEED121
:100B3000194F7F44AE3F19E0E80715D007EB0410CA
:100B40000DF1180A90E80E008AE80E00C068F04225
:100B500001D1981908903246012306A903A800F094
:100B600024FB03AB83E807006D10641C002DE3D168
:100B70004FF0010332466946B8F1000F03A802D0D6
:100B800000F0FEFA01E000F010FBC9E90001C9F82D
:100B900008200AB0BDE8F0877C260000007B00F04A
:100BA0008000704700487047F80100207546FFF745
:100BB000F9FFAE4605006946534620F0070085461A
:100BC00018B020B5FFF726FBBDE820404FF0000627
:100BD0004FF000074FF000084FF0000B21F0070125
:100BE000AC46ACE8C009ACE8C009ACE8C009ACE868
:100BF000C0098D46704710B50446AFF3008020460B
:100C0000BDE81040FFF7F1BA4FF0013C50F8042B5B
:100C100051F8043B9A4221D1A2EB0C03934313EA0F
:100C2000CC1317D150F8042B51F8043B9A4215D13C
:100C3000A2EB0C03934313EACC130BD150F8042B13
:100C400051F8043B9A4209D1A2EB0C03934313EAF7
:100C5000CC13DBD04FF00000704700BFD01A01BAB0
:100C6000B1FA81F101F0180122FA01F0CB40C1F193
:100C70002001DBB2C0B2C01A2CFA01F3D11A9143A1
:100C800011EAC311E6D170475FEA400C08BF91F04A
:100C9000000F4FEA8C234FEAC12243EA51514FEA39
:100CA0001C5018BF00F5F0404FEA300018BF41F06B
:100CB00000415FEA6C5C00F02980BCF1FF3F08BF97
:100CC00040F080407047130C06BF12044FF0100C28
:100CD0004FF0000C130E04BF12020CF1080C130F9E
:100CE00004BF12010CF1040C930F04BF92000CF12D
:100CF000020CD30F04BF52000CF1010C11464FF04F
:100D00000002A0F11F00A0EB0C00704711F0004F93
:100D100008BF704731F000413FF4D5AF0B0C06BF60
:100D200009044FF0100C4FF0000C0B0E04BF090229
:100D30000CF1080C0B0F04BF09010CF1040C8B0F14
:100D400004BF89000CF1020CCB0F04BF49000CF169
:100D5000010CCCF12003A0EB0C0022FA03F302FA01
:100D60000CF241EA030100F10100704720F07F4CD2
:100D700080EA030023F07F47ACEB070303F57C53C5
:100D800000F0004003F1FF032DE980494FEA154BC5
:100D900009B44FEA144325EA0B4E24EA03480FF244
:100DA000042606EB132749083E785FEA320203FB6C
:100DB0000667C7F5000707FB06F64FEA54374FEA08
:100DC000D64606F1020607FB066CCCF1005C4FEA42
:100DD0001C472CEA074C07FB06F40CFB06F504EB5A
:100DE00015464FEA961634BF00204FF000404FEAF8
:100DF000D13706FB07FC4FEA1C4C0CFB0BF7D21B50
:100E000003FB0CF761EB07010CFB0EF7B0EB07409F
:100E100072EB17420CFB08F734BFA2EB0742B2EBB0
:100E2000074261EB17414FEA0C444FEA910706FB7A
:100E300007FC4FEA1C4C0CFB0BF7B0EBC74072EB06
:100E4000573203FB0CF734BFA2EBC742B2EBC742E9
:100E500061EB57310CFB0EF7B0EBC70072EB57722A
:100E60000CFB08F734BFA2EBC702B2EBC70261EB81
:100E70005771039F4FEA816141EA921104EBCC0460
:100E80004FEAD1374FEA826206FB07FC42EA901232
:100E90004FEA80604FEA1C4C0CFB0BF7D21B03FBA4
:100EA0000CF761EB07010CFB0EF7B0EB074072EBA0
:100EB00017420CFB08F734BFA2EB0742B2EB074224
:100EC00061EB17414FEA8C554FEA910704EB9C24E4
:100ED00006FB07FC4FEA1C4C0CFB0BF7B0EBC740C2
:100EE00072EB573203FB0CF734BFA2EBC742B2EBF5
:100EF000C74261EB57310CFB0EF7B0EBC70072EB4A
:100F000057720CFB08F734BFA2EBC702B2EBC70263
:100F100061EB577115EB4C254FEA816141EA921163
:100F20004FEA82624FEAD13742EA901206FB07FC91
:100F300044F100044FEA80604FEA1C4C0CFB0BF7B5
:100F4000D21B03FB0CF761EB07010CFB0EF7B0EBB8
:100F5000074072EB17420CFB08F734BFA2EB0742C5
:100F6000B2EB074261EB174115EB1C154FEA8131DB
:100F700041EA92414FEA823242EA90424FEA80309F
:100F80004FEA0C7644F1000448EA03434EEA0B486A
:100F90004FF0000EB2EB080C71EB030724BF624662
:100FA00039464EEB0E0E4FF0000B001852414941EE
:100FB0004BEB0B0BB2EB080C71EB03077BF1000B57
:100FC00024BF624639464EEB0E0E4FF0000B001860
:100FD000524149414BEB0B0BB2EB080C71EB030791
:100FE0007BF1000B24BF624639464EEB0E0E51EAF0
:100FF000020718BF46F0010616EB0E7655F1000207
:1010000054F1000103D5BDE88901BDE80088BDE8C1
:101010008901BDE80048B619524141EB0101A3F135
:101020000103704780807F7E7D7C7B7A797877763C
:1010300076757473727171706F6E6E6D6C6C6B6AB5
:101040006A69686867666665646463636261616053
:10105000605F5F5E5E5D5D5C5C5B5B5A5A595958D0
:10106000585757565655555554545353525252513A
:10107000515050504F4F4F4E4E4D4D4D4C4C4C4B90
:101080004B4B4A4A4A4949494848484747474746D7
:101090004646454545444444444343434342424213
:1010A00042414141002B9C4630D477002BD01CB5E7
:1010B0004FEA370703B44FF010004FF01001BAF1B8
:1010C000000F06D0BCF1000FDCBF40F0080040F07C
:1010D00008014FF000000FBCBDE810400BF1010B00
:1010E000BBF1010F08BF5FEA170722BF12F101022F
:1010F00011F101014FF0004143F1000300F0004005
:1011000043EA00007047F9D35708D0E746EA06469D
:1011100013F1400F4FEA16461FDD13F1200FDFBF1A
:1011200016430A46002120335B42BED0C3F120079C
:1011300046EA064602FA07F74FEA164646EA070667
:10114000C3F1200722FA03F201FA07F721FA03F1AB
:101150004FF0000342EA0702A7E746EA020646EA22
:1011600006464FEA164646EA0106BCBF46EA064670
:10117000360C4FF000034FF000024FF0000194E7EF
:101180002DE9804C9A46934670B491E8380007C820
:1011900031EA400C48BF34EA430C03D5FFF7E6FDC3
:1011A000FFF780FFF0BCBDE8008C2DE9804C9A462B
:1011B000934670B491E8380007C810F0804F08BF1C
:1011C00013F0804F03D100F005F8FFF76BFFF0BC80
:1011D000BDE8008C20F07F4780EA030023F07F4CBD
:1011E00007EB0C03A3F57C5300F00040A3F1FE03D2
:1011F00092F0000F00F0B38095F0000F00F07780C0
:101200002DE901494FEA11404FEA144621EA00480E
:1012100000FB06FC24EA064708FB06F607FB08F875
:1012200000FB07F718EB06484CEB164C4FEA124B45
:1012300018EB07484FEA15464CEB174022EA0B4ED5
:101240000BFB06FC25EA06470EFB06F607FB0EFE27
:101250000BFB07F71EEB064E4CEB164C4FF000064F
:101260001EEB074E4CEB174B18EB0B0840F1000040
:1012700018EB0E0B58EB000840F100008F1A4FF0EE
:1012800000013CBFC943661B14BFB5EB040C002131
:101290003CBFC943F61B4FEA17444EEA8E0E27EABD
:1012A00004454FEA1C4704FB07622CEA074C05FB88
:1012B00007F70CFB05F604FB0CFC16EB074642EBAC
:1012C000174216EB0C4642EB1C421BEB060658EB92
:1012D0000202414146EA9E0601D5BDE80189B619E0
:1012E000524141EB0101A3F10103BDE801894FEA3D
:1012F00014454FEA114724EA054621EA074C05FB4D
:1013000007F406FB07F70CFB06F105FB0CFC11EBE1
:10131000074144EB17444FEA124711EB0C4144EBF1
:101320001C4422EA074C05FB07F206FB07F70CFBFF
:1013300006F605FB0CFC16EB074642EB174216EBD4
:101340000C4642EB1C456A1854F1000148BF704737
:10135000B619524141EB0101A3F10103704795F029
:10136000000F37D04FEA11424FEA144721EA0246F4
:1013700024EA074C02FB07F106FB07F70CFB06F417
:1013800002FB0CFC14EB074441EB17414FEA1547F5
:1013900014EB0C4441EB1C4125EA074C02FB07F51A
:1013A00006FB07F70CFB06F602FB0CFC16EB0746E8
:1013B00045EB174516EB0C4645EB1C42121951F153
:1013C000000148BF7047B619524141EB0101A3F13A
:1013D000010370474FEA14454FEA114724EA0546D6
:1013E00021EA074C05FB07F106FB07F70CFB06F2A9
:1013F0004FF0000605FB0CFC12EB074241EB1741D6
:1014000012EB0C4251EB1C4148BF7047921841EB64
:101410000101A3F10103704700BFFEE770472DE90A
:10142000F04102460025002600200023002400276A
:1014300091F803C00CF00F0591F803C00CF0100CEC
:10144000BCF1000F03D091F802C04CEA050591F8F9
:1014500000C0BCF1000F31D0146800202BE04FF029
:10146000010C0CFA00F3B1F800C00CEA03069E422E
:1014700020D183004FF00F0C0CFA03F7BC4305FAA0
:1014800003FC4CEA040491F803C0BCF1280F06D118
:101490004FF0010C0CFA00FCC2F814C00AE091F8FD
:1014A00003C0BCF1480F05D14FF0010C0CFA00FC51
:1014B000C2F810C0401C0828D1D31460B1F800C095
:1014C000BCF1FF0F34DD546800202EE000F1080C61
:1014D0004FF0010808FA0CF3B1F800C00CEA03065B
:1014E0009E4221D183004FF00F0C0CFA03F7BC434E
:1014F00005FA03FC4CEA040491F803C0BCF1280F80
:1015000005D100F1080C08FA0CF8C2F8148091F823
:1015100003C0BCF1480F07D100F1080C4FF00108DF
:1015200008FA0CF8C2F81080401C0828CED354608A
:10153000BDE8F0810246002093680B400BB101200A
:1015400000E000207047416170470161704700BFB3
:10155000FEE700002DE9F04F87B000250026A946E0
:10156000AA4600200690002400BF50E000F0E8FBEF
:10157000834601F0A1F80022464BCDE9000100F0BE
:1015800043FFCDE90201304601F0D2FA0746DDE91A
:10159000022300F091FECDE9040100F05BFE064657
:1015A00000F004FC834601F087F80022394BCDE9B6
:1015B000000100F029FFCDE90201484601F0B8FA28
:1015C0000746DDE9022300F077FECDE9040100F0D3
:1015D00041FE814600F020FC834601F06DF80022B8
:1015E0002C4BCDE9000100F00FFF0746884650461E
:1015F00001F09EFA3A464346CDE9020100F05CFE56
:10160000CDE9040100F026FE8246681CC5B2142D07
:10161000ACDB2149304601F019FB06461E4948461D
:1016200001F014FB81461C49504601F00FFB824635
:101630004946484601F004FC80465146504601F0B8
:10164000FFFB8346414601F0C7FC0746124901F003
:10165000FDFA04462146204601F0F2FB3146039094
:10166000304601F0EDFB0290039901F0B5FC834692
:1016700001F05EFA074600F061FDCDE9040100F0DB
:10168000E9FD06900549069808600846446007B0E1
:10169000BDE8F08F00004D400000A0410000002098
:1016A00000BFFEE77047000070B5002100230F2245
:1016B000C47804B3154C246804F4E064C4F5E06411
:1016C000210AC1F10403CA40447804FA03F1847882
:1016D0001440214309010E4C0678A155047804F00A
:1016E0001F050124AC4005786D11AD0005F1E02522
:1016F000C5F8004109E0047804F01F050124AC405E
:10170000044D0678761145F8264070BD0CED00E0DA
:1017100000E400E080E100E029B1064AD26902431A
:10172000044BDA6104E0034AD2698243014BDA6177
:10173000704700000010024029B1064A9269024336
:10174000044B9A6104E0034A92698243014B9A6117
:10175000704700000010024030B500210022002434
:1017600000232D4D6D6805F00C0121B1042905D031
:10177000082923D105E0294D056022E0274D0560A9
:101780001FE0254D6D6805F47012234D6D6805F45A
:101790008034022505EB92421CB9214D554305606A
:1017A0000BE01D4D6D6805F400351DB11C4D554312
:1017B000056002E0194D5543056002E0174D0560D4
:1017C00000BF00BF144D6D6805F0F0010909154D0B
:1017D0006B5C0568DD4045600F4D6D6805F4E061A8
:1017E000090A104D6B5C4568DD4085600A4D6D68E7
:1017F00005F46051C90A0B4D6B5C4568DD40C5605E
:10180000054D6D6805F44041890B074D6B5CC5685B
:10181000B5FBF3F5056130BD0010024000127A00FF
:1018200000093D000800002018000020704710B596
:1018300000F002F810BD00000CB5002001900090EF
:101840003348006840F480303149086000BF3048B8
:10185000006800F4003000900198401C019000984E
:1018600018B90198B0F5A06FF1D12948006800F4CB
:10187000003010B10120009001E00020009000989D
:10188000012843D12348006840F010002149086036
:101890000846006820F0030008600846006840F031
:1018A000020008601A4840681949486008464068C4
:1018B00048600846406840F48060486008464068D8
:1018C00020F47C1048600846406840F4E810486006
:1018D0000846006840F08070086000BF0C4800684F
:1018E00000F000700028F9D00948406820F003009B
:1018F000074948600846406840F00200486000BF61
:101900000348406800F00C000828F9D10CBD000025
:1019100000100240002002407047000010B513483C
:10192000006840F00100114908600846406810490D
:1019300008400E494860084600680E4908400B49B7
:1019400008600846006820F4802008600846406867
:1019500020F4FE0048604FF41F008860FFF767FF27
:101960004FF000600449086010BD00000010024004
:101970000000FFF8FFFFF6FE08ED00E0CA43028218
:10198000704721B1028842F00102028004E002881F
:101990004FF6FE731A40028070470146888C7047EC
:1019A0001AB183890B43838102E083898B4383814E
:1019B0007047818470470000002202881D4B9842C6
:1019C0000ED01D4B98420BD0B0F1804F08D01B4B6E
:1019D000984205D01A4B984202D01A4B984204D133
:1019E0004FF68F731A404B881A43174B984207D013
:1019F000164B984204D04FF6FF431A40CB881A4347
:101A000002808B8883850B8803850A4B98420BD014
:101A1000094B984208D00E4B984205D00D4B984286
:101A200002D00D4B984201D10B7A038601238382A9
:101A300070470000002C01400034014000040040C9
:101A400000080040000C004000100040001400405E
:101A50000040014000440140004801403EB50546B9
:101A60000C4601210846FFF757FE0020ADF806009E
:101A7000ADF80200681E80B2ADF80400601E80B2AE
:101A8000ADF8000069464FF08040FFF795FF012256
:101A900011469007FFF784FF01218807FFF771FFC8
:101AA00001218807FFF76AFF3EBD000010B540F234
:101AB00025511D4800F080F810B31B4800F038F99C
:101AC000C4B21A48008800F40040C8B9174800881A
:101AD00000F4804060B10A2C03D000201349088034
:101AE00020E01248008840F400401049088019E0C6
:101AF0000D2C06D10D48008840F480400B49088029
:101B000010E00A480088C0F30D0009490C5407484A
:101B10000088401C0549088008460088C72801DD68
:101B20000020088010BD000000380140280000207F
:101B30002E01002010B540F22551164800F03CF867
:101B4000012816D1134800F0F3F8134991F8001159
:101B5000114A5054104690F80001115C0FA0FEF796
:101B60006DFB0D4890F80001401C0B4981F8000105
:101B70000FE040F22441074800F01EF8012808D188
:101B80000020054991F80011034A5054014800F023
:101B9000CFF810BD004400402C0000202563000059
:101BA00021B1828942F40052828104E082894DF69B
:101BB000FF731A408281704770B5024600240023EB
:101BC0000025002040F66A16B14200D100BFC1F3E3
:101BD000421501F01F03012606FA03F3012D02D17D
:101BE0009689334006E0022D02D1168A334001E087
:101BF000968A33400C12012606FA04F41688344003
:101C000013B10CB1012000E0002070BDF0B5034617
:101C1000002400260025002040F66A17B94200D1B2
:101C200000BF1846C1F3421401F01F06012707FA4E
:101C300006F5012C01D10C3004E0022C01D110304A
:101C400000E014301AB107682F43076002E007680C
:101C5000AF430760F0BD00002DE9F04786B00546B0
:101C60000E460024A24600BFA1460027B08900B15D
:101C700000BF2F462C8A4CF6FF700440F0880443C6
:101C80002C82AC894EF6F3100440B08831890843A9
:101C9000718908430443AC81AC8A4FF6FF4004408D
:101CA000B0890443AC8201A8FFF756FD1F48874264
:101CB00002D1DDF810A001E0DDF80CA0A88900F445
:101CC000004040B10AEBCA0000EB0A10316849003D
:101CD000B0FBF1F807E00AEBCA0000EB0A1031682C
:101CE0008900B0FBF1F86420B8FBF0F00401200992
:101CF000642101FB1089A88900F4004040B1322022
:101D000000EBC900B0FBF1F000F00700044308E06D
:101D1000322000EB09106421B0FBF1F000F00F005D
:101D200004432C8106B0BDE8F08700000038014074
:101D300001468888C0F30800704700BFFEE7000036
:101D400010B54FF400611848FFF7FFFB142000F0B6
:101D50006BF94FF400611448FFF7F5FB00BF4FF437
:101D600080511148FFF7E6FB0028F8D0142000F05E
:101D70005BF900214FF08040FFF71BFE012188072F
:101D8000FFF7FFFD00BF4FF480510748FFF7D2FB7C
:101D90000128F8D000214FF08040FFF7F2FD4FF00E
:101DA0008040FFF7FAFD10BD000C014010B54FF464
:101DB00000511848FFF7C9FB142000F035F94FF423
:101DC00000511448FFF7BFFB00BF4FF4004111481A
:101DD000FFF7B0FB0028F8D0142000F025F900210F
:101DE0004FF08040FFF7E5FD01218807FFF7C9FDAF
:101DF00000BF4FF400410748FFF79CFB0128F8D0D3
:101E000000214FF08040FFF7BCFD4FF08040FFF70E
:101E1000C4FD10BD000C014010B540211748FFF76C
:101E200094FB142000F000F940211448FFF78BFBCD
:101E300000BF4FF480411248FFF77CFB0028F8D028
:101E4000142000F0F1F800214FF08040FFF7B1FDC1
:101E500001218807FFF795FD00BF4FF48041084836
:101E6000FFF768FB0128F8D000214FF08040FFF712
:101E700088FD4FF08040FFF790FD10BD001001403D
:101E8000000C01401CB501210820FFF755FC012181
:101E90001020FFF751FC10208DF807000120ADF84D
:101EA000040003208DF806004FF42050ADF8040024
:101EB00001A90F48FFF7B3FA4020ADF8040001A9CB
:101EC0000C48FFF7ACFA4FF420510948FFF73BFBF1
:101ED00040210848FFF737FB04208DF803004FF43A
:101EE0005040ADF8000069460148FFF798FA1CBD64
:101EF000000C014000100140490050EAC12018BF09
:101F000004204A0D18BF40F0010040F2FF72B2EB0E
:101F1000515F08BF40F00200012808BF052070474C
:101F200030380A2801D2012070470020704701464E
:101F300000BF70472DE9F04104464FF0E0200069F2
:101F400020F004004FF0E021086100208861204665
:101F500000F0B2FB05460022084B00F055FA074698
:101F600000F078F90649086006490548006800F065
:101F700067FF05490860BDE8F081000000002040CF
:101F80001C00002000007A44200000202DE9F041D0
:101F900004464FF4077094FBF0F7002594FBF0F132
:101FA00000FB114600BF04E04FF4077000F00AF890
:101FB0006D1CBD42F8DB16B1304600F003F8BDE8F9
:101FC000F081000070B5044600204FF0E021086168
:101FD000204600F01DFF064612480168304600F01A
:101FE0002FFF054600F0F4FE4FF0E021486100208D
:101FF00088610846006940F00100086100BF4FF0A9
:10200000E020006900F480300028F8D04FF0E02094
:10201000006920F001004FF0E02108610020886194
:1020200070BD00002000002070B5044600204FF075
:10203000E0210861204600F0EBFE064612480168E8
:10204000304600F0FDFE054600F0C2FE4FF0E021F4
:102050004861002088610846006940F0010008617D
:1020600000BF4FF0E020006900F480300028F8D075
:102070004FF0E020006920F001004FF0E0210861FE
:102080000020886170BD00001C00002000BF054AD0
:10209000128802F04002002AF9D0C2B2014B1B1D87
:1020A0001A807047003801401CB500BF4820FFF778
:1020B00041FF4FF4E13000F067F815A2132116A09C
:1020C000FEF7BCF848214FF6FF70FFF7C7FCFFF79B
:1020D000D9FE0FA2172110A0FEF7B0F817E0FFF706
:1020E00039FA0F49486800F023FD04460D460C49B3
:1020F000086800F01DFD064632460B4609A0CDE9F2
:102100000045FEF79BF84FF47A70FFF73FFFE6E7D4
:102110006D61696E2E63000025642C25730D0A0025
:102120000000002078203D20252E3266636D2C793A
:10213000203D20252E3266636D0D0A002DE9F04109
:1021400006460F4600F024FB041E0D4618BF012072
:10215000284320F00040C0F17F6000F1E040C00F54
:102160000ED0301C18BF0120384320F00040C0F1D1
:102170007F6000F1E040C00F04BF0120FEF760F96E
:1021800020462946BDE8F08110B586B004460121FD
:1021900044F20400FFF7D0FA4FF40070ADF81400D9
:1021A00003208DF8160018208DF8170005A91C488B
:1021B000FFF735F94FF48060ADF8140004208DF876
:1021C000170005A91648FFF72AF925208DF8000009
:1021D00003208DF801008DF8020001208DF8030026
:1021E0006846FFF761FA01940020ADF80800ADF8E9
:1021F0000A00ADF80C00ADF810000C20ADF80E0090
:1022000001A90848FFF728FD012240F225510548A1
:10221000FFF7FCFC01210348FFF7C2FC06B010BD2C
:10222000000801400038014010B500290AD00878A4
:10223000002807D005487844FEF7E6FC002801D0C6
:10224000002010BD0248784410BD0000460F000079
:102250003E0F000021F00042A2F16052B2F5801F53
:1022600001F0004328BFD2F17F6C0BD95FEA001C5C
:1022700043EAC20242EB507018BF704728BF20F0FB
:1022800001007047B2F5801FBCBF184670474FEA87
:10229000410C1CF5001F02D2084600F098BE70B534
:1022A00000F021FA00000089FFF7F6BF4FF0004070
:1022B000A0F580007047000010B591EA030F48BFF9
:1022C00083F0004300F15283841A71EB030C05D2B2
:1022D000121943EB0C03001B61EB0C01DFF824E146
:1022E0004FEA1154A4EB135C1EEA430F18BF9EEA99
:1022F000445F73D023EA0E03DCF1200E21EA04517F
:1023000043F4801332D322FA0CFE10EB0E0023FAB2
:102310000CFE41EB0E01CCF1200E03FA0EFE10EB89
:102320000E0051F10001B1F5801FCCF1200E32D228
:1023300001EB045112FA0EF2BDE8104058BF70478D
:10234000401C38BF5FEA420218BF7047002814BF24
:1023500020F0010041F100014FEA410313F5001F95
:1023600038BF7047A1F1C04100F00BBA012A43EB1E
:102370000302ACF1200CDCF11F0E32BF4FF0000E57
:1023800023FA0CF310EB030041EB0451B4EB115FA3
:10239000D0D0A1EB045101F5801149085FEA30006B
:1023A00001EB04510ED350F1000038BF12FA0EFEBB
:1023B00008D1BDE81040C9E7401C38BF5FEA4202BF
:1023C000CAD1C3E7BDE810404FEA410313F5001F2F
:1023D00038BF7047A1F1C04100F0D3B99EEA445F15
:1023E00008D011EA5E0FBDE8104004BF01F00041C3
:1023F00000207047BDE8104070B500F074F900BFD0
:1024000064FBBE3E0000E0FF2DE9C04130B4DFF8C0
:10241000A0C23CEA111418BF3CEA131400F0EC808F
:1024200081EA03051CEA111444EAD57418BF1CEABA
:10243000131500F0C780A4EB05044FF0004545EAF2
:10244000C12145EAC32341EA505143EA525304F102
:102450007F74994204F500344FEAC0204FEAC2224B
:1024600008BF904200F09C804FEA13650FF24016BF
:10247000765D4FEA134506FB05F7C7F1807706FB4B
:1024800007F74FEAD737A7FB03687642C8F58038CD
:10249000A7FB06CE38BFA8F1010807FB08E64FF0FE
:1024A000000EA6FB028CE6FB03CEDCF1000CCEF1A5
:1024B000004E38BFAEF1010EA6FB0C584FF00007DE
:1024C0004FF00005E6FB0E87A1FB08C6A0FB07CE78
:1024D00016EB0E0645F10005E1FB076515F1E04E30
:1024E0007EBFA4F580345FEA46066D4116F1800791
:1024F00045F100054FEA17274FEA066647EA0567E8
:10250000A6F1DE46B6F1805F4FEA15251FD93846A1
:1025100024F0010C05EBC471BCF1FE6F01EB0C1152
:1025200002D8F0BCBDE8008124425CBF01F5801EEA
:102530009EEAC47F02D4F0BCBDE80081244238D4B6
:10254000F0BCA1F1C041BDE8004100F01AB94FEA6A
:10255000D22242EA43524FEAD323A7FB02864FEA34
:10256000D02040EA415007FB03661EEA0E0F4FEAF7
:10257000D12105FB026658BFA6EB0056B6EB00560C
:102580004FEA520E4EEAC37E18EB0E0E56EB530E78
:10259000BDD518EB02085E417F1C55F10005B6E77A
:1025A0004FF480154FF000074FF000064FF0000881
:1025B000ADE7F0BC4FF0000001F1C04101F0004177
:1025C000BDE8008111EA0C1F0CEA131500D00CE0E5
:1025D00013EA0C1F00F025804FF00000F0BC81EAE8
:1025E000030101F00041BDE80081F0BCBDE80041FD
:1025F00081EA030100F0C5B8F0BCBDE8004170B548
:1026000000F071F8097EFC3E00F007B881EA030192
:102610004FF0000001F00041704781EA030100F033
:10262000B0B8F0BCBDE800414FF000002149704750
:10263000FFFDFBF9F7F5F4F2F0EEEDEBE9E8E6E487
:10264000E3E1E0DEDDDBDAD8D7D5D4D3D1D0CFCD0E
:10265000CCCBCAC8C7C6C5C4C2C1C0BFBEBDBCBB47
:10266000BAB9B8B7B6B5B4B3B2B1B0AFAEADACAB42
:10267000AAA9A8A8A7A6A5A4A3A3A2A1A09F9F9E1C
:102680009D9C9C9B9A9999989797969595949393CE
:10269000929191908F8F8E8E8D8C8C8B8B8A898965
:1026A00088888787868585848483838282818180E8
:1026B0000000FF070000F87F10F0004248BF4042D2
:1026C000B0FA80F310FA03F10AD0C3F11D0303F549
:1026D00080634FEA415002EB035202EBD121704775
:1026E0004FF0000070470EF1020E2EF0030E5EF860
:1026F000046B364205D4012A43EB030515F5001F90
:1027000012D8012841EB010C1CF5001F0CD80ED18A
:102710004FEAD17C15F5001F0CEB4C0C0CF1020CB0
:1027200008BF4CEBD37C04E04FF0080C01E04FEA0B
:10273000D37C0CEB4C0526FA05F606F00706B6F13D
:10274000040C06D20EEB860CBDE870404CF0010C78
:102750006047DFE80CF0090B02024FF000414FF038
:102760000000A1F5002170BD19461046012851EB6B
:10277000010418BFD4F5001484BF002001F000410B
:1027800070BD0808A0F500114FEA31017047000044
:102790002DE9F04101F5801CBCF5001FC0F2C3809B
:1027A0004FEA115C21EA0C510CF1FD0C41F480114F
:1027B0005FEA5C0C0CF5C07C01D3400049413DA4AC
:1027C000890241EA905187028E0E0A0CA45D04FB37
:1027D00004F602FB06F6C6F14046A4FB0662F60DBF
:1027E00046EA422606FB06F4A4FB01235242C3F14B
:1027F000404338BF5B1EA6FB02420024E6FB0324D5
:10280000D20B42EA4446A6FB0623A1FB02E2A3FB4D
:1028100007E4A4184FF0000252F10002E3FB01426A
:102820006442C2F1404E38BFAEF1010EA6FB042354
:102830004FF00002E6FB0E32A2FB03464FF000040D
:10284000B61954F10004E2FB0264A1FB06E6A4FB06
:1028500007E816EB08064FF0000858F10008E4FB03
:1028600001687642C8F1405838BFA8F10108A2FBC0
:1028700006E4A3FB08E52D194FF0000454F1000411
:10288000E2FB0854A1FB05E6A7FB04E818EB0608E9
:102890004FF0000656F10006E1FB048618F1200512
:1028A00056F10006A809A8F11B08B10908F03F0875
:1028B000B8F10A0F40EA86601CD901EB0C51BDE863
:1028C000F08100BFFCF5EEE8E2DDD8D3CFCBC7C383
:1028D000C0BDB9B6B4B1AEACA9A7A5A3A19F9D9B3D
:1028E0009A9896959392908F8D8C8B898887868500
:1028F00084838281A0FB006800FB01F208EB4208A0
:10290000B8EB872807D5341858EB0104D5D5401CFF
:1029100051F10001D1E7341A78EB0104CDD4401E07
:1029200071F10001C9E75FEA4C0C5FEA9C5C0DD1D4
:1029300005D34FF0000001F00041BDE8F081BDE893
:10294000F04170B5FFF7CFFE6DDBFFBEBDE8F04193
:102950004FF00000004970470000F87F10B591EA81
:10296000030F48BF83F000433FF5AEAC841A71EB10
:10297000030C07D212198CF0004C43EB0C03001B24
:1029800061EB0C01DFF8A4E14FEA1154A4EB135CF6
:102990001EEA430F18BF9EEA445F00F0B08023EAAE
:1029A0006E03524221EA0451C3EB6E0338BF5B1E33
:1029B000DCF1200E25D322FA0CFE10EB0E0043FAB8
:1029C0000CFE41EB0E01CCF1200E03FA0EFE10EBD3
:1029D0000E0051F10001CCF1200E29D412FA0EF2B2
:1029E00001EB0451BDE8104058BF7047401C1CBFAC
:1029F000B2F1004F704700280CBF491C20F00100C5
:102A0000704712EB020E43EB030218BF4FF0010EAA
:102A10004EEA4202ACF1200CDCF11E0E54D943FA0E
:102A20000CFE10EB0E0051F1FF31CCF11E0ED5D58E
:102A30000EF1010E12FA0EFE404141EB010101EBD5
:102A4000445C5FEA5C5C10D910EBDE7001EB045172
:102A500038BFBEF1004FBDE8104018BF70470028D6
:102A60000CBF491C20F00100704730D24FEAD42C33
:102A700011F5001124F400641BD0B1FA81F20B3A75
:102A8000A41AA41ED2F12003914030FA03F3194393
:102A9000904001EBCC71002C01EB0451BDE81040DB
:102AA000A8BF704701F1C0414FF0000001F00041A4
:102AB0007047B0FA80F310FA03F100D110BDE41AA8
:102AC000173C4805C90AE4E701EB045110BD491061
:102AD00001EB0451BDE810404FEA300002E04FF036
:102AE000000170474A0008BF0042F8D0B2F5001F4D
:102AF00028BF704701F000414FF0000070479EEA88
:102B0000445F07D011EA5E0FBDE8104004BF00210A
:102B100000207047BDE8104070B5FFF7E4FD00BF2E
:102B200040DFF63E83F00041104670470000E0FFB2
:102B300043004FEAD30C4FEA3C0C43401FBF400711
:102B40000CF1605113F0FE4F70471CF0006F03D181
:102B500000200CF0004170470CF0004343EA507035
:102B600010B540EACC0000F0ECF900BF0000009284
:102B70004FEA0001FFF705BE4FF000414FF00000A3
:102B8000A1F500217047000090EA010F48BF81F0D5
:102B9000004100F12882421A3CBF801A89184FEA8E
:102BA000D0524FF07F4C1CEA410FA2EBD15318BF1B
:102BB0009CEA026F00F03B804FF0004C4CEA002092
:102BC0004CEA012121FA03FC10EB0C0C1ED202F19D
:102BD000FF325FEA1C2040EBC25038BF70471CF048
:102BE0007F0F4FEA400C18BFBCF17F4F38BF7047D2
:102BF000C3F12003994008BF20F00100BCF17F4FD2
:102C000038BF7047A0F1C04000F0E1B94FEA3C0086
:102C1000000A40EBC25028BF1CF0FF0F4FEA400CE7
:102C2000E6D018BFBCF17F4F38BF7047EAE79CEA97
:102C3000026F05D010EA5C0F08BF00F0004070473B
:102C400010B500F07EF900BF64FBBE3E4FF47F0C70
:102C50001CEAD0121EBF1CEAD11392EA0C0F93EAB1
:102C60000C0F00F0858090EA010F48BF42F480729B
:102C700040F4000C41F400002CF07F4120F07F4034
:102C800000B58142A2EB03020FF2081CACEB504EE0
:102C9000C0F100009EF800E04FEA4E0E00FB0EFC73
:102CA00038BF49004FEA2C1C02F5FA020CFB0EF368
:102CB0004FEACE1E4FEA112C4FEAC1210EEB635EA4
:102CC00042EB22420EFB0CFC4FEA1C5300FB0311AB
:102CD0004FEA112C4FEA01310EFB0CFC4FEADC4CA1
:102CE00000FB0C11C14228BF09184CEB03335DF8FF
:102CF00004EB10EB410143EBC250B2F57C0F38BF3F
:102D0000704729D512F0F00F1CBF00F1C04000F051
:102D100000407047008182838485868788898B8CF8
:102D20008D8E8F919293959697999A9C9D9FA0A234
:102D3000A3A5A7A8AAACAEB0B2B3B5B7B9BCBEC084
:102D4000C2C5C7C9CCCED1D4D7D9DCDFE2E6E9EC25
:102D5000F0F3F7FAFE0000004FEA400C0CF1807C23
:102D6000BCF17E4F28BF7047B0F1C04000F02FB9D2
:102D700090EA010F0CEAD11348BF42F48072624519
:102D800038BF634507D213F47F0F16D080EA0100E5
:102D900000F00040704710B500F0D3F8097EFC3E0B
:102DA00000F005B880EA010000F00040704780EABA
:102DB000010000F0004000F00AB912F47F0F04BFD8
:102DC0000248704780EA010000F001B90000C07FAE
:102DD000C10DD1F19E0206DB4FEA002343F0004310
:102DE00023FA02F07047004207D54FEA4001B1F1E3
:102DF000FE4F02D24FF00000704710B500F0A1F86E
:102E000049922480002070476FEA2000704700003C
:102E100010F0004148BF4042B0FA80F310FA03F2CC
:102E2000C3F19D030BD051EAC35101EB12205306AD
:102E300038BF704700F1010008BF20F00100704763
:102E40004FF47F0C1CEAD0121EBF1CEAD11392EA89
:102E50000C0F93EA0C0F00F0478090EA010F48BF77
:102E600042F480724FF0004C4CEA00204CEA012101
:102E700002EB0302A0FB0113A2F50002002918BF18
:102E800043F001035B0028BF4FEA330342EB2242C9
:102E90005FEA132C4CEBC2502EBFBCEB436FB2F574
:102EA0007C0F70474FEA036CBCF1004F08BF20F065
:102EB0000100B2F57C0F38BF70470BD582F0FF02DE
:102EC00012F5803FC8BF704700F1C040D8BF00F086
:102ED0000040704700F5000C5FEA4C0C48BF70479B
:102EE000B0F1C04000F073B890EA010F0CEAD113C2
:102EF00048BF42F48072624538BF634504D280EA1D
:102F0000010000F00040704710B500F01AF800BF53
:102F10008900013E00F007B800F009B85FEA410CF3
:102F20005FEA1C6C08D080EA010000F050B85FEA4C
:102F3000400C5FEA1C6CF6D14FF00040A0F5800019
:102F400070470EF1020E2EF0030E5EF8044B244281
:102F500004D44FEA4102B2F17F4F11D84FEA400347
:102F6000B3F17F4F0CD80ED14FEAD07CB2F17F4F36
:102F70000CEB4C0C0CF1020C08BF4CEBD17C04E0C8
:102F80004FF0080C01E04FEAD17C0CEB4C0324FA23
:102F900003F404F00704B4F1040C06D20EEB840C25
:102FA000BDE810404CF0010C6047DFE80CF007086A
:102FB00002024FF00040A0F5800010BD084642001C
:102FC00018BFD2F1807288BF00F0004010BDFF2111
:102FD00041EAD050C005704790EA010F48BF81F028
:102FE00000413FF5D8AD421A04D882F00042A0EB70
:102FF000020011444FEAD0524FF07F4C1CEA410FBF
:10300000A2EBD15318BF9CEA026F4AD04FF0004C9C
:103010004CEA00204CEA012121FA03FCB0EB0C0C35
:103020000FD412F0FE0F36D05FEA4C001DD500120F
:1030300040EBC25038BF70471CF03F0F18BF7047BD
:103040000BE0A2F101025FEA1C2040EBC25038BF46
:1030500070471CF07F0F18BF7047C3F120039940E1
:1030600014BF401E20F00100704780084FEA122371
:1030700008BF7047B0FA80FCA2EB0C02CCF1280C20
:1030800060FA0CF093EA122F04BF00EBC2507047B5
:103090004FEAC3707047130A5FEADC1008BF70473D
:1030A000F6E79CEA026F04D010EA5C0F08BF00202C
:1030B000704710B5FFF745FF40DFF63E81F0004056
:1030C0007047FDF7F5BA000002400000000000A0C4
:1030D0000000000005400000000000C800000000E3
:1030E0000C4000000000409C00000000194000005F
:1030F0000020BCBE0000000034400000BFC91B8E91
:1031000000000004B5400000504BCFD06607E2CF6E
:10311000010000006C4100003E8251AADFEEA7349E
:1031200001000000D9420000DCB5A0E23A301F9750
:10313000FFFFFFFFB4450000FD25A0C8E9A3C14F74
:10314000FFFFFFFFFF3F00000000008000000000C5
:10315000FF3F0000000000800000000098310008E0
:10316000000000202C0000006C010008C4310008A1
:103170002C0000202C080000880100081C00000022
:1031800043000000F8FFFFFF0C0000000E000000ED
:103190000F0000002E0000000000000000000000F2
:1031A00000000000010203040102030406070809ED
:1031B00002040608000000000000000000000000FB
:0431C000000000000B
:04000005080001F9F5
:00000001FF
